:04000000A6EF03F074
:08000800046ED8CF05F0E0CF33
:1000100006F00001E9CF0CF0EACF07F0E1CF08F0DD
:10002000E2CF09F0D9CF0AF0DACF0BF0F3CF12F01C
:10003000F4CF13F0FACF14F0F5CF15F0F6CF16F099
:10004000F7CF17F000C00EF001C00FF002C010F0A3
:1000500003C011F09DA030EF00F09EB0E1EF00F082
:100060009DAA36EF00F09EBA5DEF00F00EC000F0E2
:100070000FC001F010C002F011C003F00CC0E9FF86
:1000800007C0EAFF078E08C0E1FF09C0E2FF0AC00F
:10009000D9FF0BC0DAFF12C0F3FF13C0F4FF14C086
:1000A000FAFF15C0F5FF16C0F6FF17C0F7FF0450A2
:1000B00006C0E0FF05C0D8FF1000030E20129EAA64
:1000C000FED7AECF19F01950610A1FE0030A25E0F0
:1000D000010A2AE0070A30E0010A34E0030A36E0A8
:1000E000010A3AE00F0A40E0010A45E0030A4BE04A
:1000F000010A4EE0070A51E0010A54E0030A54E005
:10010000010A57E01F0A57E058D0050E1A6ED89022
:100110001D301B6E1DC01CF050D0050E1A6E1DC088
:100120001BF01DC01CF049D0050E1A6E1DC01BF03F
:10013000D8901D301C6E41D0040E1A6E1B6A1DC073
:100140001CF03BD01A6A1B6A1C6A37D0010E1A6E6B
:100150001DC01BF01C6A31D00A0E1A6E1DC01BF0A8
:10016000D8901D301C6E29D00A0E1A6E1DC01BF0CF
:100170001DC01CF022D00A0E1A6ED8901D301B6EC6
:100180001DC01CF01AD0640E1D6E070E206E15D017
:10019000AA0E1D6E0B0E206E10D0F00E1D6E130EEB
:1001A000206E0BD02D8009D02D901A6A1B6A1C6A14
:1001B00004D02D8202D02D9200D01E6A9E9A36EF76
:1001C00000F01E2A1E50090803E2010E206E1E6A6E
:1001D0003C0ECF6EB00ECE6E9E9036EF00F0EA6A07
:1001E0002F0EE96EEF500DE0020E016E006A002E38
:1001F000FED7012EFBD7970E006E002EFED7EF2EF6
:10020000F3D712008E0E006E31C001F030C002F044
:10021000036A015209E102C001F0026A080E005EA1
:10022000015202E1006A08D0D89001BE04D0023623
:1002300001360006F9D7019E12003C50D8B471D0A7
:10024000006E4050D8B46DD0002604E3810E002625
:1002500068E204D07F0E005E64E363E03DC044F0DA
:100260004150441A3D8E418E3F504302F4CF46F038
:100270003E504202F4CF03F0F3CF45F04302F35077
:100280004626F4504522000E03223F504202F3500E
:100290004626F4504522000E026A032202223D50F7
:1002A0004302F3504526F4500322000E02223D5033
:1002B0004202F3500326F4500222000E016A01228A
:1002C0003F504102F3504526F4500322000E022213
:1002D00001223E504102F3500326F4500222000E48
:1002E00001223D504102F3500226F4500122002A1F
:1002F00001BE05D045360336023601360006000E33
:1003000045AE0AD0032A02220122015005E1025023
:1003100003E1035001E1002A44BE018E44AE019E78
:1003200004D0006A016A026A036A12003350D8B42A
:10033000A5D03F6E3750D8B4A1D03F5E05E37F0E05
:100340003F26D8B09BD006D0810E3F5ED8A096D075
:10035000D8B494D03FC000F0016A026A036A3E6AD2
:1003600034C03DF03D8E35C03CF036C03BF0190E38
:100370003F6E3A503B5E0DE2010E3C5E0AE23D5E8E
:1003800008E23E5E06E23E2A3D2A3C2A3A503B26DF
:1003900028D039503C5E12E2010E3D5E0FE23E5E17
:1003A0000DE23E2A3D2A39503C263A503B2619E3BD
:1003B0003C2A17E13D2A15E13E2A13D03850800926
:1003C0003D5E0EE2010E3E5E0BE23E2A3850800991
:1003D0003D2639503C26E9E33D2AE7E13E2AE5D7B0
:1003E00003803F2E01D00BD0D8903B363C363D36B3
:1003F0003E36D8900336023601364036BAD740A092
:1004000006D0D890013202320332403202D00006C8
:1004100035E040BE1ED0D8903B363C363D363E36A9
:100420003A503B5E07E2010E3C5E04E23D5E02E2B2
:100430003E5E1AE339503C5E05E2010E3D5E02E28B
:100440003E5E12E3385080093D5E03E2010E3E5EDF
:100450000BE3032A09E1022A07E1012A05E1002A48
:100460000DE001320232033234C03FF038503F1AFF
:100470003FAE02D0018E06D0019E04D0006A016A10
:10048000026A036A12003C50B6083C6E036A3DC023
:1004900040F03D8ED8903D323E323F320332023240
:1004A000013200323C2EF6D740AE0BD0001E011EAA
:1004B000021E031E002AD8B4012AD8B4022AD8B4D6
:1004C000032AD1EF02F0D8B203D0EA6A440EE96EF3
:1004D000006A016A026A036A446A456A466A476AB0
:1004E00043504210411040102CE0200E486ED8902E
:1004F0003C363D363E363F36443645364636473640
:100500004350475C08E14250465C05E14150455C80
:1005100002E14050445C0FE34050445E4150D8A09B
:10052000413C455E4250D8A0423C465E4350D8A074
:10053000433C475ED8800036013602360336482EEB
:10054000D6D744C0EFFF45C0ECFF46C0ECFF47C024
:10055000ECFF1200E950346E3350366E19E032C0B1
:100560003FF031C03EF030C03DF02FC03CF0436A58
:10057000426A200E416E820E406E5FDE03C032F092
:1005800002C031F001C030F000C02FF0362EE7D7A6
:1005900032C03FF031C03EF030C03DF02FC03CF0E3
:1005A00072D703C032F002C031F001C030F000C099
:1005B0002FF032AE0DD03406348A2F1E301E311E7D
:1005C000321E2F2AD8B4302AD8B4312AD8B4322ACD
:1005D0003B0E3B6E9A0E3A6ECA0E396E386A0A0EA0
:1005E000366E3350D8B4342AD882EA6A2F0EE96EB8
:1005F00032C03FF031C03EF030C03DF02FC03CF083
:100600003BC043F03AC042F039C041F038C040F03E
:100610005ADF015000520FE13328365C0CE03450B1
:100620000CE00F0B365C01E03BE234BE39D034BC49
:1006300004D0200E30D0200E341634AA0DD0349AB7
:100640003350D8A434060050346E2D0E9EA8FED729
:10065000AD6E3450006E346A3350365C0BE100509E
:10066000346E2E0E9EA8FED7AD6E3450006E200E56
:100670003416000E300E34AA0ED0349A3350D8A45B
:1006800034060050346E2D0E9EA8FED7AD6E345049
:10069000006E346A300E002600509EA8FED7AD6E64
:1006A000D8923BC03FF03AC03EF039C03DF038C070
:1006B0003CF0436A426A416A0A0E406E04DF03C09E
:1006C0003BF002C03AF001C039F000C038F0362EDD
:1006D0008BD7120030C037F03450371A37AE05D000
:1006E000D894D89030BED8802FD030C037F033C0E7
:1006F00038F02F50385E06E037AE26D0D850010AC9
:10070000D86E22D034C038F03050385E06E037AEB4
:100710001BD0D850010AD86E17D035C038F03150F0
:10072000385E06E037AE10D0D850010AD86E0CD033
:1007300036C038F03250385E06E037AE05D0D850BB
:10074000010AD86E01D0D890D0EF04F0F86AD09E9C
:10075000078E700ED36ED350B8960C0EAF6EA20EED
:10076000AC6E900EAB6E196A1A6A1B6A1C6A640E34
:100770001D6E1E6A1F6A206A246A236A226A216A21
:10078000286A276A266A256A2C6A2B6A2A6A296AD5
:100790002D902D92C150C00B0F09C16E070EB46E83
:1007A000E00E926E000E936E9D8A9D80C00EF21236
:1007B00094948B940C0EBD6E94928B92BA6E000E34
:1007C0000609CA6EFF0ECB6EB50ECD6E3C0ECF6E17
:1007D000B00ECE6E800ED56EC050C00B0709C06E35
:1007E000C09EC280C150C00B0A09C16EE00E926E5D
:1007F000100E016EC250C30B0110C26E010E2E6EA0
:100800002E50100809E3926A2EC089FFC80E2F6E81
:10081000E6DCD8902E36F4D7C80E2F6EE0DC926A54
:10082000896A92908980936A1AC08AFF926A20C06E
:1008300089FF1BC0BEFF1CC0BBFFE00E926E100EF6
:10084000016EC250C30B0110C26E060E006E002E68
:10085000FED70000C282316AC4CF30F0D3DC03C0BF
:100860003FF002C03EF001C03DF000C03CF0436AE2
:10087000426A480E416E830E406EDFDC03C032F0E8
:1008800002C031F001C030F000C02FF003C036F0DC
:1008900002C035F001C034F000C033F03A6A396A62
:1008A0007F0E386E860E376E41DD03C024F002C025
:1008B00023F001C022F000C021F0939C8A8C060E28
:1008C000006E002EFED70000939C8A9C938E81BE02
:1008D00001D0FCD7D76AD66A938E81AE01D0FCD7FF
:1008E000D650D7CF03F0306ED7CF31F08BDC03C0BA
:1008F0002CF002C02BF001C02AF000C029F02CC05F
:1009000036F02BC035F02AC034F029C033F0330E56
:100910003A6E396E690E386E840E376E07DD03C08D
:1009200028F002C027F001C026F000C025F02DA25B
:1009300023D01E500A081FE1890EE96E24C032F050
:1009400023C031F022C030F021C02FF0020E336EF0
:1009500001DE780E9EA8FED7AD6E890EE96E28C026
:1009600032F027C031F026C030F025C02FF0020E43
:10097000336EF0DD1E6A1E2A640E2F6E30DC2DA051
:1009800024D028C032F027C031F026C030F025C076
:100990002FF0366A356A200E346E820E336E9AD688
:1009A0000BE3F00E1D6E130E206E050E1A6E1DC0A9
:1009B0001BF01DC01CF009D0640E1D6E070E206ECA
:0E09C000010E1A6E1DC01BF01C6A2DD703001D
:020000040030CA
:0E00000020C83E1E008781000FC00FE00F4099
:00000001FF
;PIC18F2550
;CRC=17F5  CREATED="07-jul.-24 22:22"
